:100000000C94D5000C94040C0C94DD0B0C94B60BE2
:100010000C948F0B0C94FD000C94FD000C94680B59
:100020000C94FD000C94FD000C947D080C94EC08DD
:100030000C94FD000C94FD000C94FD000C94FD004C
:100040000C94FD000C94FD000C94FD000C94FD003C
:100050000C942B0C0C94FD000C94FD000C941E0BC6
:100060000C94FD000C94FD000C94FD000C94FD001C
:100070000C94FD000C94FD000C94FD000C94FD000C
:100080000C94FD000C94FD000C94FD000C94FD00FC
:100090000C94FD000C94FD000C94FD000C94FD00EC
:1000A0000C94FD000C94FD000C94FD000000000079
:1000B0002300260029002C002F000000000024004F
:1000C00027002A002D003000000000002500280035
:1000D0002B002E0031000404040404030405020272
:1000E00002020403020202020606060606060404D1
:1000F0000202020404040802011040804010204063
:10010000804080080204018040201002011080100D
:1001100020404020080B00020202000009040000F9
:100120000102020000052400100105240101010460
:10013000240206052406000107058103100040097A
:10014000040100020A000000070502024000000747
:100150000583024000000403090412010002EF02BB
:1001600001404123368000010102030141726475A0
:10017000696E6F204C4C430041726475696E6F204C
:100180004C656F6E6172646F000000000200090F21
:100190000000030401000C0000000000000000004B
:1001A0000000000000000000520C11241FBECFEF21
:1001B000DAE0DEBFCDBF22E0A4E6B1E001C01D92CF
:1001C000AB33B207E1F711E0A0E0B1E0ECE2F8E216
:1001D00002C005900D92A436B107D9F710E0C5ED25
:1001E000D0E004C02197FE010E94E912C43DD1076E
:1001F000C9F70E94040E0C9414140C940000FC0126
:1002000080918801882311F13FB7F89482E08093B0
:10021000E9002091F200822F90E01816190614F4DC
:1002200081E090E0882339F0289844E640938701E4
:100230004091F1004083222339F02091F2002111F6
:1002400003C02BE62093E8003FBF08958FEF9FEF98
:1002500008952FB7F89483E08093E9009091E80027
:10026000892F807295FF04C09091F20080E4891B71
:100270002FBF089580917F0181110DC082E080938E
:100280007B0184E080937C0110927E0110927D01BD
:1002900081E080937F018BE791E0089540917501A3
:1002A00050917601209173013091740142175307E8
:1002B000B4F49091E8009570E1F39091E80092FD1C
:1002C00019C08093F100809175019091760101969B
:1002D0008F739927892B19F48EEF8093E800809112
:1002E0007501909176010196909376018093750146
:1002F00081E0089580E00895EF92FF920F931F939D
:10030000CF93DF93F82E192FE62E042F81E0860F6E
:10031000880F0E944E0183E00E944E01CF2DD12F05
:10032000EC0EFD2EF11CCE15DF05B9F007FF13C052
:10033000FE0184910E944E01182F80E00E944E0120
:10034000812321968111EFCFDF91CF911F910F91E2
:10035000FF90EF9008958881EDCF81E0F5CFDF9297
:10036000EF92FF920F931F93CF93DF93D82E8A01C2
:10037000EB017B01E40EF51ECE15DF0559F0D7FE2B
:1003800012C0FE0184910E944E0121968111F4CF8A
:100390000FEF1FEFC801DF91CF911F910F91FF90D9
:1003A000EF90DF9008958881EECF0F931F93CF9346
:1003B000DF931F92CDB7DEB782E0898342E450E03D
:1003C00064E171E080E80E94AF010E943A01DC0123
:1003D00012960D911C910115110589F0D801ED912E
:1003E000FC910280F381E02DBE016F5F7F4FC80159
:1003F000099597FD04C0F80100851185ECCF89812E
:100400000F90DF91CF911F910F910895615030F0BF
:100410002091F100FC0120830196F8CF289884E612
:10042000809387010895CF93DF931F92CDB7DEB7F6
:100430006983DC01ED91FC910280F381E02D41E0C4
:1004400050E0BE016F5F7F4F09950F90DF91CF9114
:10045000089583E08093E9008091F200882319F0E9
:100460008AE38093E80008950E94290190E00895AE
:10047000CF93DF931F92CDB7DEB7FC0184859585BE
:1004800097FD08C02FEF3FEF358724870F90DF914E
:10049000CF910895CE0101960E94FF00019719F4B3
:1004A000898190E0F3CF8FEF9FEFF0CF0F931F93F1
:1004B000CF93DF931F92CDB7DEB78C01FC0184850B
:1004C000958597FF0BC0CE0101960E94FF00019712
:1004D00071F4898190E0F80195878487F80184851B
:1004E00095850F90DF91CF911F910F9108958FEF18
:1004F0009FEFF1CFFC018485958597FD0BC09FB7D9
:10050000F89482E08093E9008091F2009FBF90E030
:10051000019608959FB7F89482E08093E900809156
:10052000F2009FBF90E0089581508F3008F047C0DF
:10053000E82FF0E0E256FD4F0C94E912BB02BF0237
:10054000AD02B302B702DF02DF02DF02C202C8025D
:10055000CC02D002D602DF02DA02809180008F77CF
:10056000809380000895809180008F7DF9CF8091E5
:100570008000877FF5CF84B58F7784BD089584B5DB
:100580008F7DFBCF809190008F77809390000895AE
:10059000809190008F7DF9CF80919000877FF5CF7B
:1005A0008091C0008F778093C00008958091C00033
:1005B0008F7DF9CF8091C200877F8093C20008951C
:1005C0001F93CF93DF93282F30E0F901E757FE4FB9
:1005D0008491F901EB50FF4FD491F901EA52FF4F9A
:1005E000C491CC23A9F0162F81110E949402EC2F04
:1005F000F0E0EE0FFF1FE853FF4FA591B4918FB7C6
:10060000F894EC91111108C0D095DE23DC938FBFD4
:10061000DF91CF911F910895DE2BF8CFCF93DF9319
:1006200090E0FC01EB50FF4F24918A529F4FFC0158
:1006300084918823D1F090E0880F991FFC01E65443
:10064000FF4FA591B491FC01E853FF4FC591D491A0
:10065000623071F49FB7F8943C91822F8095832388
:100660008C93E8812E2B28839FBFDF91CF91089533
:100670008FB7F894EC912E2B2C938FBFF6CF4F921F
:100680005F926F927F928F929F92AF92BF92CF9222
:10069000DF92EF92FF920F931F93CF93DF9300D0DF
:1006A00000D000D0CDB7DEB78C01DC01ED90FC901E
:1006B00011971496ED91FC91FE83ED83D7016C9117
:1006C00070E090E080E00E948E1026E53EE049EC6C
:1006D00050E40E94EF104B015C01F701618170E072
:1006E00090E080E00E948E102AE037ED43EA5CE360
:1006F0000E94EF109B01AC01C501B4010E943C12A5
:100700009B01AC01AD81BE816D917D918D919C91DC
:100710000E94CF116B017C01ED81FE812481358126
:10072000468157810E94EF102B013C01AD81BE81B3
:1007300018962D913D914D915C911B97C701B60183
:100740000E94EF102AE037ED43EA5CE30E94EF10CD
:10075000ED81FE8124893589468957890E94D0110F
:100760004B015C01AD81BE8154968D929D92AD92FC
:10077000BC92579758962D913D914D915C915B9706
:10078000C701B6010E94CF11ED81FE812485358518
:10079000468557850E94EF102AE037ED43EA5CE377
:1007A0000E943C1269837A838B839C83AD81BE81D6
:1007B0005896CD92DD92ED92FC925B97A501940143
:1007C000C301B2010E94D01129813A814B815C8121
:1007D0000E94D0114B017C01ED81FE81A48CB58C6F
:1007E000C68CD78C9501A6010E94891087FD17C081
:1007F000AD81BE819096AC9090979196BC90919768
:100800009296CC9092979396DC909501A601B401B4
:10081000C7010E94E412181614F054016701C501C3
:10082000D601ED81FE81808B918BA28BB38BD80199
:100830001296ED90FC90B501C6010E94AE12F70130
:10084000238130E0862F062E000C990B67FD20C017
:100850004FEF50E0481B590B241735070CF4A90142
:10086000D70113964C93D7011396BC91B60FB98359
:10087000F701B38392819D8361E0892F0E940E036B
:10088000A981A1110FC060E08D810E94E00232C0F9
:10089000919581959109821793070CF4C901F7018D
:1008A0008383E1CFB981BF3F11F461E0EDCF8D814A
:1008B000E82FF0E0E757FE4FE491E150EF3008F009
:1008C000ADC0F0E0EA59FB4F0C94E91275049504B1
:1008D0009B04A804B5040E050E050E05C204CF0442
:1008E000DC04E904F7040E05000584B5806884BDC6
:1008F000998197BDD801ED91FC91108226960FB693
:10090000F894DEBF0FBECDBFDF91CF911F910F9145
:10091000FF90EF90DF90CF90BF90AF909F908F901F
:100920007F906F905F904F90089584B5806284BDF2
:10093000A981A8BDDFCF809180008068809380006E
:10094000F981EF2FF0E0F0938900E0938800D2CF97
:10095000809180008062809380009981892F90E04F
:1009600090938B0080938A00C5CF8091800088602F
:1009700080938000B981AB2FB0E0B0938D00A0933D
:100980008C00B8CF80919000806880939000F981AE
:10099000EF2FF0E0F0939900E0939800ABCF8091B7
:1009A00090008062809390009981892F90E09093CD
:1009B0009B0080939A009ECF8091900088608093E6
:1009C0009000B981AB2FB0E0B0939D00A0939C0044
:1009D00091CF8091C00080688093C0008091C0005A
:1009E0008F7B8093C000E981E093CF0083CF80911B
:1009F000C00080628093C000F981F093D0007ACF6C
:100A00008091C20088608093C2008091C2008B7F79
:100A10008093C20089818093D2006CCF998197FD29
:100A200044CF31CFFF920F931F93CF93DF93EC010D
:100A3000F62E8A01188281E0898362E08F2D0E9460
:100A40000E0381E092E0F91280E0E82FF0E0EE0F73
:100A5000FF1FE45FFE4F11830083813079F08091A6
:100A600069008C7F816080936900E89A88E28983BD
:100A7000DF91CF911F910F91FF90089580916900B0
:100A8000837F846080936900E99AF0CF3FB7F89440
:100A90008091690190916A01A0916B01B0916C0104
:100AA00026B5A89B05C02F3F19F00196A11DB11DC9
:100AB0003FBFBA2FA92F982F8827BC01CD01620F05
:100AC000711D811D911D42E0660F771F881F991FC0
:100AD0004A95D1F708958F929F92AF92BF92CF928D
:100AE000DF92EF92FF924B015C010E9446056B0181
:100AF0007C010E9446056C197D098E099F09683E9C
:100B0000734081059105A8F321E0821A9108A1089C
:100B1000B10888EEC80E83E0D81EE11CF11C8114D8
:100B20009104A104B10429F7FF90EF90DF90CF90DA
:100B3000BF90AF909F908F9008958F929F92AF92A9
:100B4000BF92CF92DF92EF92FF920F931F93CF93BA
:100B5000DF936C017B018A0180910B01882309F4EA
:100B60005CC080918801882309F457C08091790185
:100B700080FF05C08091E00082608093E000E80182
:100B8000B12C8AEFA82E93E0892E2AE3922E20978B
:100B900011F4BB20D9F10E94290181110AC0AA9445
:100BA000AA20D9F161E070E080E090E00E946B053E
:100BB000EECF8C171D0611F00CF08C2F9FB7F89418
:100BC0008092E9002091E80025FD02C09FBFDFCFA1
:100BD000282F30E0C21BD30BF701815020F0419148
:100BE0004093F100FACFE20EF31EBB2021F0909269
:100BF000E800B12CEBCF8091E80085FDE7CF909223
:100C0000E800BB24B394209709F3F3CF5D9884E602
:100C100080937A01101611063CF081E090E0F60115
:100C20009383828310E000E0C801DF91CF911F9190
:100C30000F91FF90EF90DF90CF90BF90AF909F907B
:100C40008F9008952FB7F8946091650170916601B7
:100C500080916701909168012FBF08950895E091F8
:100C60003302F091340280818F5F80830895E09198
:100C70003502F091360280818F5F80830895FC01F8
:100C800001900020E9F73197AF01481B590BBC01D7
:100C900089E891E00C949D058F929F92AF92BF924C
:100CA0000F931F93CF93DF93CDB7DEB7A1970FB606
:100CB000F894DEBF0FBECDBF19A2423008F44AE05F
:100CC0008E010F5D1F4F842E912CB12CA12CA501FC
:100CD00094010E94AD11E62FB901CA01EA30F4F483
:100CE000E05DD801EE938D01232B242B252B79F782
:100CF00090E080E0109719F0CD010E943F06A19688
:100D00000FB6F894DEBF0FBECDBFDF91CF911F911C
:100D10000F91BF90AF909F908F900895E95CE1CFC5
:100D2000EF92FF920F931F93CF93DF9300D000D0E9
:100D3000CDB7DEB789E891E00E94380289E891E0FA
:100D40000E9438028E010F5F1F4F78018A3341F0F5
:100D5000F80181938F0189E891E00E943802F6CF73
:100D6000C7010E946310182F89E891E00E943802A1
:100D70008053990B8230910520F4682F812F0E94B7
:100D8000E00289E891E00E9438028A3011F08D304B
:100D9000C1F789E891E00E9456028A3021F489E87F
:100DA00091E00E9438020F900F900F900F90DF910A
:100DB000CF911F910F91FF90EF900895BF92CF9226
:100DC000DF92EF92FF920F931F93CF93DF938C01EB
:100DD0006A017B01DC011296CD91DC91B88020E0A4
:100DE00030E0A901CB01B6010E94E41287FD27C0C3
:100DF00060E08B2D0E94E00261E089810E94E002A8
:100E000020E030E0A901C701B6010E94E4121816E3
:100E100024F0F7FAF094F7F8F094D8011496ED91D5
:100E2000FC91C082D182E282F382DF91CF911F9147
:100E30000F91FF90EF90DF90CF90BF90089561E009
:100E40008B2D0E94E00260E0D8CF4F925F926F92AC
:100E50007F928F929F92AF92BF92CF92DF92EF924A
:100E6000FF920F931F93CF93DF9300D000D000D059
:100E7000CDB7DEB700911F0210912002D801149661
:100E80000D90BC91A02DBE83AD83F801C680D780A4
:100E9000812CD60112968C911297881608F042C0C8
:100EA000882D90E0880F991FED91FC91E80FF91FB4
:100EB000A080B180F501208130E0F901E757FE4FB5
:100EC0008491F901EB50FF4F9490F901EA52FF4FE2
:100ED000749030E020E0772099F081110E94940214
:100EE000E72DF0E0EE0FFF1FE455FF4FA591B49101
:100EF000EC919E2291E080E009F490E0292F382FB8
:100F0000D50111966C916203A001639F500D1124CD
:100F100081E090E0452B11F490E080E0E80EF91EAE
:100F20008394B7CFB701FF0C880B990B0E949010E8
:100F30009B01AC01ED81FE81608171818281938191
:100F40000E94CF116B017C01AD81BE8114962D9161
:100F50003D914D915C9117970E94EF102B013C0140
:100F6000ED81FE812085318542855385C701B6011B
:100F70000E94EF102AE037ED43EA5CE30E94EF1095
:100F8000AD81BE8154962D913D914D915C915797C5
:100F90000E94D0114B015C01ED81FE81848A958A0B
:100FA000A68AB78A208D318D428D538DC701B60137
:100FB0000E94CF11AD81BE811C962D913D914D9126
:100FC0005C911F970E94EF102AE037ED43EA5CE343
:100FD0000E943C1269837A838B839C83ED81FE811E
:100FE000C08ED18EE28EF38EA5019401C301B201B1
:100FF0000E94D01129813A814B815C810E94D011DD
:101000004B015C01AD81BE815C96CC905C975D9696
:10101000DC905D975E96EC905E975F96FC909601F3
:10102000A7010E94891087FD10C0ED81FE81C0A03C
:10103000D1A0E2A0F3A09601A701B401C5010E94CE
:10104000E412181614F064017501C601D701ED8190
:10105000FE81808B918BA28BB38BD8011496ED917E
:10106000FC91159718962D913D914D915C911B9790
:1010700060897189828993890E94D011AB01BC017A
:10108000F801808191810E94DE06D8011496ED91CD
:10109000FC911597208931894289538918966D9161
:1010A0007D918D919C911B970E94CF11AB01BC014A
:1010B000F801828193810E94DE06D8018D919C9176
:1010C0000E943F03F8018281938126960FB6F8941F
:1010D000DEBF0FBECDBFDF91CF911F910F91FF906B
:1010E000EF90DF90CF90BF90AF909F908F907F90C8
:1010F0006F905F904F900C943F031F920F920FB62A
:101100000F9211248F939F938091E1009091E100C1
:10111000937F9093E10083FF0FC01092E90091E06C
:101120009093EB001092EC0092E39093ED001092FC
:10113000880198E09093F00082FF22C093E09093A2
:10114000E9009091F200992319F09AE39093E80056
:1011500090917A01992341F090917A019150909366
:101160007A01911101C05D9A90918701992341F014
:1011700090918701915090938701911101C0289A15
:1011800084FF18C08091E2008E7E81608093E2002F
:101190008091E1008F7E8093E100809179018E7EC5
:1011A0008061809379019F918F910F900FBE0F9076
:1011B0001F90189580FFF7CF8091E2008E7E8061AE
:1011C0008093E2008091E1008E7E8093E100809127
:1011D00079018E7E8160E5CF1F920F920FB60F923C
:1011E0001124CF92DF92EF92FF920F931F932F93D0
:1011F0003F934F935F936F937F938F939F93AF939F
:10120000BF93EF93FF93CF93DF93CDB7DEB76C9788
:10121000DEBFCDBF1092E9008091E80083FF25C0BA
:1012200068E0CE0145960E94060282EF8093E800B6
:101230008D8987FF39C09091E80090FFFCCF982FEF
:10124000907609F034C19E894F89588D2F89F88C8A
:10125000911131C0803861F5809178018093F1005F
:101260001092F1008EEF8093E8006C960FB6F89420
:10127000DEBF0FBECDBFDF91CF91FF91EF91BF9148
:10128000AF919F918F917F916F915F914F913F911E
:101290002F911F910F91FF90EF90DF90CF900F90C3
:1012A0000FBE0F901F9018959EEF9093E800C7CF48
:1012B0001092F100D5CF913059F48111D3CF413044
:1012C000510581F6809178018D7F80937801CACF96
:1012D000933049F48111C6CF4130510519F6809100
:1012E00078018260F2CF953041F48091E80080FF70
:1012F000FCCF20682093E300B5CF963009F0A9C059
:101300000B8D1C8D22E01092E90010927601109254
:101310007501F2122EC010927401109273010E9496
:10132000D5011F8299E09983FA8291E09E8390EA29
:1013300098879AEF99872091750130917601275F00
:101340003F4F3C832B838D831092E90010927601EE
:1013500010927501109374010093730149E050E0FD
:10136000BE016F5F7F4F80E00E94AF010E94D501F8
:1013700079CF10937401009373010E943A01DC014C
:1013800012960D911C910115110509F451C1D80156
:10139000ED91FC910480F581E02DBE016B5E7F4FE5
:1013A000C8010995009709F03EC1F8010085118533
:1013B000EACFF3E0FF120EC08F89882309F440C002
:1013C000823061F440E860E188E791E00E947C01AE
:1013D000811148CF81E28093EB0047CF813029F41F
:1013E00040E86BE08CE691E0F1CF833099F70E9402
:1013F0003A01DC011296ED90FC908E010F5F1F4FB9
:101400006801E114F10479F0D701ED91FC910680B7
:10141000F781E02DB801C7010995080F111DF701EB
:10142000E084F184EECFD8011C92F60101900020F7
:10143000E9F73197BF016C197D0940E0C601C6CFBD
:1014400066E571E0FB01449150E080E80E94AF0145
:1014500009CF973009F4BECF983021F481E0809312
:10146000F10000CF993009F0FDCE837009F0B2CFC2
:10147000EDE1F1E081E031E096E32191222371F08A
:101480008093E9003093EB00DF0111972C912093BA
:10149000EC009093ED008F5F873079F78EE78093B3
:1014A000EA001092EA008F8980938801DBCE8B8D51
:1014B0009C8D1092E9001092760110927501909324
:1014C000740180937301898D811192C08E899D89E9
:1014D000913A49F4813209F07DCF47E050E064E071
:1014E00071E080E0B3CF913209F074CF833269F4B8
:1014F0008F89988DB0E0A0E0809300019093010166
:10150000A0930201B0930301ADCE803269F48091C3
:10151000E80082FFFCCF67E084E091E00E940602D1
:101520008BEF8093E8009ECE823209F09BCE8F89AC
:1015300080930B01EEEFFFE7859194918B3F9C4DDB
:1015400051F1E0E0F8E08091040190910501A09153
:101550000601B0910701803B9440A105B105F1F46B
:1015600080910B0180FD1AC0EE3F8AE0F80789F5F3
:1015700087E797E79183808380916000809377016C
:1015800088E19BE00FB6F894A895809360000FBEA9
:101590009093600067CEEEEFFAE0D5CF8081918125
:1015A0008737974709F05ECEA895809160008861E3
:1015B000809360008091770180936000EE3F2AE085
:1015C000F20789F08091FE0A9091FF0A918380834F
:1015D00049CE808191818737980751F29093FF0A15
:1015E0008093FE0AC5CF1092FF0A1092FE0A3ACEEF
:1015F0000E943A01DC0112960D911C910115110512
:1016000009F4E8CED801ED91FC910190F081E02D34
:10161000BE016B5E7F4FC8010995811123CEF80191
:1016200000851185EBCF181619060CF41BCED2CE0F
:10163000F1E0FF12BECE6AE571E004CF1F920F9277
:101640000FB60F9211242F933F938F939F93AF93D5
:10165000BF938091650190916601A0916701B0915F
:1016600068013091640123E0230F2D3758F501966E
:10167000A11DB11D209364018093650190936601C3
:10168000A0936701B09368018091690190916A010C
:10169000A0916B01B0916C010196A11DB11D8093C9
:1016A000690190936A01A0936B01B0936C01BF91A3
:1016B000AF919F918F913F912F910F900FBE0F90FF
:1016C0001F90189526E8230F0296A11DB11DD2CFB9
:1016D0001F920F920FB60F9211242F933F934F93A7
:1016E0005F936F937F938F939F93AF93BF93EF938A
:1016F000FF93E0911401F09115010995FF91EF918D
:10170000BF91AF919F918F917F916F915F914F9119
:101710003F912F910F900FBE0F901F9018951F9221
:101720000F920FB60F9211242F933F934F935F9315
:101730006F937F938F939F93AF93BF93EF93FF9399
:10174000E0911201F09113010995FF91EF91BF9182
:10175000AF919F918F917F916F915F914F913F9149
:101760002F910F900FBE0F901F9018951F920F9200
:101770000FB60F9211242F933F934F935F936F9364
:101780007F938F939F93AF93BF93EF93FF93E091DA
:101790001001F09111010995FF91EF91BF91AF9167
:1017A0009F918F917F916F915F914F913F912F9179
:1017B0000F900FBE0F901F9018951F920F920FB6AB
:1017C0000F9211242F933F934F935F936F937F93C7
:1017D0008F939F93AF93BF93EF93FF93E0910E018D
:1017E000F0910F010995FF91EF91BF91AF919F91FA
:1017F0008F917F916F915F914F913F912F910F90BA
:101800000FBE0F901F9018951F920F920FB60F9258
:1018100011242F933F934F935F936F937F938F93F5
:101820009F93AF93BF93EF93FF93E0910C01F091DF
:101830000D010995FF91EF91BF91AF919F918F910C
:101840007F916F915F914F913F912F910F900FBEBC
:101850000F901F9018951F920F920FB60F921124A0
:101860002F933F934F935F936F937F938F939F93A8
:10187000AF93BF93EF93FF93E0916D01F0916E01F1
:101880000995FF91EF91BF91AF919F918F917F91BA
:101890006F915F914F913F912F910F900FBE0F90DD
:1018A0001F9018952F923F924F925F926F927F9266
:1018B0008F929F92AF92BF92CF92DF92EF92FF9260
:1018C0000F931F93CF93DF93E9E8F1E01382128225
:1018D00088EE93E0A0E0B0E084839583A683B7838D
:1018E00087E291E0918380838FEF9FEF95878487D4
:1018F000E9EDF1E0168217821086118612861386B2
:101900001486158616861786108A118A128A138AFB
:10191000148A158A82E090E00E94EF122C0147E3BE
:1019200056E063E00E941205509236024092350262
:1019300082E090E00E94EF121C014FE256E062E06C
:101940000E941205309234022092330284E090E02B
:101950000E94EF126C01FC0113828CE0808384E012
:10196000818385E08283D0923202C092310284E08A
:1019700090E00E94EF127C01FC0113828AE08083D8
:1019800088E081838DE08283F0923002E0922F0222
:1019900084E290E00E94EF128C01FC01108211821F
:1019A00012821382108A118A128A138A148A158A63
:1019B000168A178A108E118E128E138E148E158E23
:1019C000168E178E10A211A212A213A2812C912C96
:1019D000A12C80E4B82E84829582A682B7821086DC
:1019E000118612861386148615861686178610931E
:1019F0002E0200932D0284E290E00E94EF12EC018F
:101A0000188219821A821B82188A198A1A8A1B8ADA
:101A10001C8A1D8A1E8A1F8A188E198E1A8E1B8E8A
:101A20001C8E1D8E1E8E1F8E18A219A21AA21BA21A
:101A30008C829D82AE82BF82188619861A861B868A
:101A40001C861D861E861F8690932C0280932B0277
:101A500086E090E00E94EF123C01FC01D382C2823A
:101A6000518240821583048390932A028093290235
:101A700086E090E00E94EF126C01FC01F382E282AA
:101A800031822082D583C4839093280280932702D9
:101A900088E090E00E94EF12EC0182E090E00E946A
:101AA000EF128C01FC011082118262E082E10E943F
:101AB0000E0382E1F80180838CE981831983088316
:101AC00082E090E00E94EF128C01FC0110821182F2
:101AD00062E083E10E940E0383E1F80180838EECD3
:101AE00081831B830A8382E090E00E94EF128C01C5
:101AF000FC011082118262E084E10E940E0384E105
:101B0000F801808382E381831D830C8382E090E06F
:101B10000E94EF128C01FC011082118262E085E1CB
:101B20000E940E0385E1F801808384E681831F8390
:101B30000E83D0932602C093250283E090E00E949A
:101B4000EF128C01FC01D183C08384E08283109367
:101B500024020093230284E290E00E94EF12EC0141
:101B6000188219821A821B82188A198A1A8A1B8A79
:101B70001C8A1D8A1E8A1F8A188E198E1A8E1B8E29
:101B80001C8E1D8E1E8E1F8E18A219A21AA21BA2B9
:101B90008C829D82AE82BF82188619861A861B8629
:101BA0001C861D861E861F8690932202809321022A
:101BB0008CE090E00E94EF12FC0171826082D3827F
:101BC000C282D583C4831783068380E090E0A0EAB5
:101BD000B0E480879187A287B387F0932002E093D7
:101BE0001F02DF91CF911F910F91FF90EF90DF9037
:101BF000CF90BF90AF909F908F907F906F905F90AD
:101C00004F903F902F900895789484B5826084BD62
:101C100084B5816084BD85B5826085BD85B58160F0
:101C200085BD80916E00816080936E00109281006E
:101C30008091810082608093810080918100816029
:101C400080938100809180008160809380008091EA
:101C500091008260809391008091910081608093D7
:101C60009100809190008160809390008091C100EC
:101C700084608093C1008091C10082608093C10024
:101C80008091C10081608093C1008091C300816018
:101C90008093C3008091C00082608093C0008091D7
:101CA000C20081608093C20080917A00846080933A
:101CB0007A0080917A00826080937A0080917A0025
:101CC000816080937A0080917A00806880937A00A6
:101CD0001092880110927801109279018091D700BA
:101CE00081608093D70080EA8093D80089B58061B5
:101CF00089BD89B5826089BD09B400FEFDCF61E070
:101D000070E080E090E00E946B058091D8008F7CAD
:101D100080618093D8008091E000807F8093E00014
:101D20008091E1008E7E8093E1008DE08093E2005F
:101D3000559A209A10921B0210921C0210921D02BA
:101D400010921E021092DB011092DC011092DD0154
:101D50001092DE010E9422066B017C014B015C01A6
:101D600028EB820E2BE0921EA11CB11C0E942206C1
:101D70006C157D058E059F0528F086169706A8062A
:101D8000B906A0F768EE73E080E090E00E946B0572
:101D90008FEF9FEF90939601809395010E9422060A
:101DA0006093DB017093DC018093DD019093DE0191
:101DB00085E391E00E943F060E9422066B017C01B0
:101DC0004B015C013AE0830E911CA11CB11C0E94E6
:101DD00022066C157D058E059F0528F08616970650
:101DE000A806B906A0F7C1E0C093EF010E94220641
:101DF0006093DB017093DC018093DD019093DE0141
:101E000086E491E00E943F06E0912D02F0912E02BF
:101E100040E050E06FE773EC448F558F668F778F0B
:101E200080E090E0AFE7B3E480A391A3A2A3B3A3C3
:101E3000E0912B02F0912C02448F558F668F778FA3
:101E400080A391A3A2A3B3A3E0912102F091220267
:101E5000448F558F668F778F80A391A3A2A3B3A3DE
:101E600080E1809381001092800080E29EE4909354
:101E700087008093860082E18093810085E297E06D
:101E800090936E0180936D01C0936F008FEF9FEF71
:101E90009093960180939501C0E0D0E084EF882E66
:101EA00099249394A12CB12C0E942206672B682BB5
:101EB000692B09F4F1C00E942206C0906F01D090F6
:101EC0007001E0907101F09072016C157D058E0536
:101ED0009F0508F4EFC0C0906F01D0907001E090B2
:101EE0007101F09072019B01AC012C193D094E0962
:101EF0005F0969017A0138EEC31633E0D306E104C5
:101F0000F10408F4D1C060936F0170937001809365
:101F10007101909372018092E7019092E801A09282
:101F2000E901B092EA011092EB011092EC011092DB
:101F3000ED011092EE018091DF019091E001A091FE
:101F4000E101B091E2018093E3019093E401A09359
:101F5000E501B093E6010E9422066093DF017093D1
:101F6000E0018093E1019093E20189E891E00E9411
:101F70005602843611F40E9490060E942206609355
:101F8000DB017093DC018093DD019093DE010E9400
:101F900022066B017C018DE491E00E943F064AE03D
:101FA00061E070E080E090E00E944C0684E591E002
:101FB0000E943F064AE0C701B6010E944C0686E532
:101FC00091E00E943F068091DF019091E001A09195
:101FD000E101B091E201A7019601281B390B4A0BE0
:101FE0005B0BCA01B9014AE00E944C0686E591E00C
:101FF0000E943F066091DF017091E0018091E10154
:102000009091E201C090E301D090E401E090E501FD
:10201000F090E6016C197D098E099F094AE00E9443
:102020004C0688E591E00E943F060E9422064AE0A5
:102030000E944C068AE591E00E943F0681E691E00D
:102040000E943F060E9422062B013C017C016B018D
:1020500035E0C30ED11CE11CF11C0E942206641560
:1020600075058605970528F0C616D706E806F90611
:10207000A0F789E891E00E945602843611F40E948C
:1020800090060E9422066093DF017093E001809326
:10209000E1019093E20108C00E94220662307105BE
:1020A0008105910508F007CF209709F4FDCE0E9425
:1020B0000000FACE60936F017093700180937101FC
:1020C0009093720108CFFC0188279927E894219109
:1020D0002032E9F3293010F02E30C8F32B3241F0D2
:1020E0002D3239F4689404C00E948110820F911D32
:1020F000219120532A30C0F31EF4909581959F4F73
:1021000008957AE0979F902D879F802D910D11243F
:1021100008950E94CB1008F481E00895E89409C066
:1021200097FB3EF490958095709561957F4F8F4F0A
:102130009F4F9923A9F0F92F96E9BB279395F69520
:10214000879577956795B795F111F8CFFAF4BB0F9E
:1021500011F460FF1BC06F5F7F4F8F4F9F4F16C002
:10216000882311F096E911C0772321F09EE8872F8C
:10217000762F05C0662371F096E8862F70E060E048
:102180002AF09A95660F771F881FDAF7880F9695C1
:10219000879597F90895990F0008550FAA0BE0E865
:1021A000FEEF16161706E807F907C0F01216130619
:1021B000E407F50798F0621B730B840B950B39F459
:1021C0000A2661F0232B242B252B21F408950A26BF
:1021D00009F4A140A6958FEF811D811D08950E94ED
:1021E00002110C9473110E94651138F00E946C1159
:1021F00020F0952311F00C945C110C9462111124C1
:102200000C94A7110E94841170F3959FC1F3950F50
:1022100050E0551F629FF001729FBB27F00DB11D6A
:10222000639FAA27F00DB11DAA1F649F6627B00DFA
:10223000A11D661F829F2227B00DA11D621F739FE3
:10224000B00DA11D621F839FA00D611D221F749FF1
:102250003327A00D611D231F849F600D211D822F38
:10226000762F6A2F11249F5750409AF0F1F088235F
:102270004AF0EE0FFF1FBB1F661F771F881F91508C
:102280005040A9F79E3F510580F00C945C110C94CE
:10229000A7115F3FE4F3983ED4F386957795679551
:1022A000B795F795E7959F5FC1F7FE2B880F911DB6
:1022B0009695879597F9089597F99F6780E870E05C
:1022C00060E008959FEF80EC089500240A941616AC
:1022D000170618060906089500240A941216130614
:1022E000140605060895092E0394000C11F48823A2
:1022F00052F0BB0F40F4BF2B11F460FF04C06F5FBE
:102300007F4F8F4F9F4F089557FD9058440F551F93
:1023100059F05F3F71F04795880F97FB991F61F067
:102320009F3F79F087950895121613061406551FDE
:10233000F2CF4695F1DF08C0161617061806991F4A
:10234000F1CF86957105610508940895E894BB273F
:1023500066277727CB0197F90895A1E21A2EAA1BC9
:10236000BB1BFD010DC0AA1FBB1FEE1FFF1FA21745
:10237000B307E407F50720F0A21BB30BE40BF50B42
:10238000661F771F881F991F1A9469F760957095CB
:10239000809590959B01AC01BD01CF0108955058E7
:1023A000BB27AA270E94E7110C9473110E946511A4
:1023B00038F00E946C1120F039F49F3F19F426F494
:1023C0000C9462110EF4E095E7FB0C945C11E92F7C
:1023D0000E94841158F3BA176207730784079507A0
:1023E00020F079F4A6F50C94A6110EF4E0950B2ECE
:1023F000BA2FA02D0B01B90190010C01CA01A00157
:102400001124FF27591B99F0593F50F4503E68F1B1
:102410001A16F040A22F232F342F4427585FF3CFF2
:10242000469537952795A795F0405395C9F77EF4C3
:102430001F16BA0B620B730B840BBAF09150A1F00C
:10244000FF0FBB1F661F771F881FC2F70EC0BA0F92
:10245000621F731F841F48F4879577956795B7951A
:10246000F7959E3F08F0B0CF9395880F08F0992715
:10247000EE0F9795879508950E9450120C94731152
:102480000E946C1158F00E94651140F029F45F3FE2
:1024900029F00C945C1151110C94A7110C94621149
:1024A0000E94841168F39923B1F3552391F3951B8E
:1024B000550BBB27AA2762177307840738F09F5F65
:1024C0005F4F220F331F441FAA1FA9F335D00E2ED2
:1024D0003AF0E0E832D091505040E695001CCAF73F
:1024E0002BD0FE2F29D0660F771F881FBB1F261702
:1024F00037074807AB07B0E809F0BB0B802DBF01D9
:10250000FF2793585F4F3AF09E3F510578F00C94A7
:102510005C110C94A7115F3FE4F3983ED4F38695C9
:1025200077956795B795F7959F5FC9F7880F911DC8
:102530009695879597F90895E1E0660F771F881FB4
:10254000BB1F621773078407BA0720F0621B730B67
:10255000840BBA0BEE1F88F7E09508950E94B51220
:102560006894B1110C94A71108950E948C1188F001
:102570009F5798F0B92F9927B751B0F0E1F0660F47
:10258000771F881F991F1AF0BA95C9F714C0B13088
:1025900091F00E94A611B1E008950C94A611672F46
:1025A000782F8827B85F39F0B93FCCF386957795B7
:1025B0006795B395D9F73EF49095809570956195A0
:1025C0007F4F8F4F9F4F08950E94CB1008F48FEFDD
:1025D0000895EE0FFF1F0590F491E02D09940F93DD
:1025E0001F93CF93DF938230910510F482E090E047
:1025F000E0913902F0913A0230E020E0B0E0A0E052
:10260000309799F42115310509F44AC0281B390B7C
:1026100024303105D8F58A819B816115710589F1D6
:10262000FB0193838283FE0111C0408151810281AD
:10263000138148175907E0F04817590799F4109784
:1026400061F012960C93129713961C933296CF0159
:10265000DF91CF911F910F9108950093390210934C
:102660003A02F4CF2115310551F04217530738F0E3
:10267000A901DB019A01BD01DF01F801C1CFEF0122
:10268000F9CF90933A0280933902CDCFFE01E20F49
:10269000F31F819391932250310939832883D7CF37
:1026A0002091370230913802232B41F420911801F8
:1026B000309119013093380220933702209116018E
:1026C000309117012115310541F42DB73EB74091E6
:1026D0001A0150911B01241B350BE0913702F09138
:1026E0003802E217F307A0F42E1B3F0B2817390717
:1026F00078F0AC014E5F5F4F2417350748F04E0F5E
:102700005F1F5093380240933702819391939FCF7C
:10271000F0E0E0E09CCFCF93DF930097E9F0FC017D
:10272000329713821282A0913902B0913A02ED01E0
:1027300030E020E01097A1F420813181820F931FB7
:1027400020913702309138022817390709F061C00B
:10275000F0933802E0933702DF91CF910895EA01B8
:10276000CE17DF07E8F54A815B819E0141155105CF
:10277000B1F7E901FB83EA8349915991C40FD51F51
:10278000EC17FD0761F4808191810296840F951FFB
:10279000E90199838883828193819B838A83F0E016
:1027A000E0E012968D919C9113970097B9F52D91C9
:1027B0003C911197CD010296820F931F2091370211
:1027C000309138022817390739F6309751F51092B1
:1027D0003A0210923902B0933802A0933702BCCF6C
:1027E000D383C28340815181840F951FC817D907B5
:1027F00061F44E5F5F4F88819981480F591F518363
:1028000040838A819B81938382832115310509F05E
:10281000B0CFF0933A02E09339029ECFFD01DC0184
:0C282000C0CF13821282D7CFF894FFCFF4
:10282C00FFFFFFFF00E10000000000002E062E0657
:10283C002E062E062E0600003B02800000C1808171
:10284C000000000000000013029D05340229027AEA
:10285C000238025602564D4450565F317C315F5659
:10286C004D4450560A00564D4450525F00564D444C
:10287C0050455F003A323A007C005F564D4450455B
:04288C00000D0A0031
:00000001FF
