:100000000C94D5000C94BB0A0C94940A0C946D0AC1
:100010000C94460A0C94FD000C94FD000C941F0AED
:100020000C94FD000C94FD000C947E070C94ED07DD
:100030000C94FD000C94FD000C94FD000C94FD004C
:100040000C94FD000C94FD000C94FD000C94FD003C
:100050000C94E20A0C94FD000C94FD000C943407FF
:100060000C94FD000C94FD000C94FD000C94FD001C
:100070000C94FD000C94FD000C94FD000C94FD000C
:100080000C94FD000C94FD000C94FD000C94FD00FC
:100090000C94FD000C94FD000C94FD000C94FD00EC
:1000A0000C94FD000C94FD000C94FD000000000079
:1000B0002300260029002C002F000000000024004F
:1000C00027002A002D003000000000002500280035
:1000D0002B002E0031000404040404030405020272
:1000E00002020403020202020606060606060404D1
:1000F0000202020404040802011040804010204063
:10010000804080080204018040201002011080100D
:1001100020404020080B00020202000009040000F9
:100120000102020000052400100105240101010460
:10013000240206052406000107058103100040097A
:10014000040100020A000000070502024000000747
:100150000583024000000403090412010002EF02BB
:1001600001404123368000010102030141726475A0
:10017000696E6F204C4C430041726475696E6F204C
:100180004C656F6E6172646F000000000200090F21
:100190000000030401000C0000000000000000004B
:1001A0000000000000000000090B11241FBECFEF6B
:1001B000DAE0DEBFCDBF11E0A0E0B1E0EEE6F2E2B2
:1001C00002C005900D92A633B107D9F721E0A6E34E
:1001D000B1E001C01D92A33CB207E1F710E0C5ED0C
:1001E000D0E004C02197FE010E940A10C43DD1074F
:1001F000C9F70E94EA0C0C9435110C9400002F9260
:100200003F924F925F926F927F928F929F92AF92A6
:10021000BF92CF92DF92EF92FF920F931F93CF93F3
:10022000DF9300D000D000D0CDB7DEB79E838D83A2
:100230009A01AB01FC0160817181828193810E94EE
:10024000CC0D6B017C01ED81FE81248135814681DD
:1002500057810E949D0F2B013C01ED81FE8120857D
:10026000318542855385C701B6010E949D0F2AE062
:1002700037ED43EA5CE30E949D0FED81FE81248906
:100280003589468957890E94CD0D4B015C01ED816E
:10029000FE81248C358C068D178D9101A8010E945A
:1002A000390E87FD8DC0ED81FE81F0A1F983ED81CE
:1002B000FE81F1A1FA83ED81FE81F2A1FB83ED8144
:1002C000FE81F3A1FC8329813A814B815F2FB40128
:1002D000C5010E94980F181624F089829A82AB8279
:1002E000BC8289819A81AB81BC81ED81FE81848B46
:1002F000958BA68BB78B208D318D428D538DC70189
:10030000B6010E94CC0DED81FE81248535854685A0
:1003100057850E949D0F2AE037ED43EA5CE30E9477
:100320003E0E4B015C01ED81FE81C08ED18EE28ECE
:10033000F38E29813A814B815C81C301B2010E9415
:10034000CD0DA50194010E94CD0D6B017C019B0197
:10035000AC01B101C8010E94980F181684F0ED811C
:10036000FE8120A031A002A113A19101A801B60134
:10037000C7010E94980F181614F016018701C101D9
:10038000D801ED81FE81808B918BA28BB38B269659
:100390000FB6F894DEBF0FBECDBFDF91CF911F9196
:1003A0000F91FF90EF90DF90CF90BF90AF909F9014
:1003B0008F907F906F905F904F903F902F90089517
:1003C00029823A820B831C838CCFFC0180915601D9
:1003D000882311F13FB7F89482E08093E9002091DF
:1003E000F200822F90E01816190614F481E090E0D4
:1003F000882339F0289844E6409355014091F10054
:100400004083222339F02091F200211103C02BE612
:100410002093E8003FBF08958FEF9FEF08952FB717
:10042000F89483E08093E9009091E800892F80722E
:1004300095FF04C09091F20080E4891B2FBF0895BE
:1004400080914D0181110DC082E08093490184E0CB
:1004500080934A0110924C0110924B0181E08093ED
:100460004D0189E491E008953FB7F89480914501EA
:1004700090914601A0914701B091480126B5A89BF3
:1004800005C02F3F19F00196A11DB11D3FBFBA2F26
:10049000A92F982F8827BC01CD01620F711D811DE6
:1004A000911D42E0660F771F881F991F4A95D1F76B
:1004B0000895CF92DF92EF92FF920E9434026B0177
:1004C0007C010E9434026C197D098E099F09683EE7
:1004D000734081059105A8F3FF90EF90DF90CF90D6
:1004E000089540913A0150913B012091380130919B
:1004F000390142175307B4F49091E8009570E1F385
:100500009091E80092FD19C08093F10080913A012A
:1005100090913B0101968F739927892B19F48EEFE7
:100520008093E80080913A0190913B01019690936D
:100530003B0180933A0181E0089580E00895EF92B5
:10054000FF920F931F93CF93DF93F82E192FE62E70
:10055000042F81E0860F880F0E94710283E00E94C1
:100560007102CF2DD12FEC0EFD2EF11CCE15DF0523
:10057000B9F007FF13C0FE0184910E947102182F89
:1005800080E00E947102812321968111EFCFDF91DB
:10059000CF911F910F91FF90EF9008958881EDCF3B
:1005A00081E0F5CFDF92EF92FF920F931F93CF93ED
:1005B000DF93D82E8A01EB017B01E40EF51ECE15E8
:1005C000DF0559F0D7FE12C0FE0184910E9471022E
:1005D00021968111F4CF0FEF1FEFC801DF91CF916A
:1005E0001F910F91FF90EF90DF9008958881EECFDB
:1005F0000F931F93CF93DF931F92CDB7DEB782E0A7
:10060000898342E450E064E171E080E80E94D20214
:100610000E942002DC0112960D911C91011511051A
:1006200089F0D801ED91FC910280F381E02DBE01AB
:100630006F5F7F4FC801099597FD04C0F8010085E1
:100640001185ECCF89810F90DF91CF911F910F9190
:100650000895615030F02091F100FC012083019653
:10066000F8CF289884E68093550108958F929F9241
:10067000AF92BF92CF92DF92EF92FF920F931F93B0
:10068000CF93DF936C017B018A0180910B0188235A
:1006900009F458C080915601882309F453C0809111
:1006A0003E0180FF05C08091E00082608093E00001
:1006B000E801B12C8AEFA82E93E0892E2AE3922E2E
:1006C000209711F4BB20B9F10E940F02811106C0DE
:1006D000AA94AA20B9F10E945902F2CF8C171D06E4
:1006E00011F00CF08C2F9FB7F8948092E9002091C4
:1006F000E80025FD02C09FBFE3CF282F30E0C21BDA
:10070000D30BF701815020F041914093F100FACFD3
:10071000E20EF31EBB2021F09092E800B12CEBCF4B
:100720008091E80085FDE7CF9092E800BB24B39468
:10073000209709F3F3CF5D9884E680933F0110166C
:1007400011063CF081E090E0F6019383828310E093
:1007500000E0C801DF91CF911F910F91FF90EF90C2
:10076000DF90CF90BF90AF909F908F900895CF93E0
:10077000DF931F92CDB7DEB76983DC01ED91FC9169
:100780000280F381E02D41E050E0BE016F5F7F4FBA
:1007900009950F90DF91CF91089583E08093E90050
:1007A0008091F200882319F08AE38093E80008958D
:1007B0000E940F0290E00895CF93DF931F92CDB770
:1007C000DEB7FC018485958597FD08C02FEF3FEFCC
:1007D000358724870F90DF91CF910895CE01019640
:1007E0000E94E501019719F4898190E0F3CF8FEF22
:1007F0009FEFF0CF0F931F93CF93DF931F92CDB74F
:10080000DEB78C01FC018485958597FF0BC0CE0176
:1008100001960E94E501019771F4898190E0F80149
:1008200095878487F801848595850F90DF91CF9116
:100830001F910F9108958FEF9FEFF1CFFC018485F9
:10084000958597FD0BC09FB7F89482E08093E900EF
:100850008091F2009FBF90E0019608959FB7F894B1
:1008600082E08093E9008091F2009FBF90E00895BC
:1008700081508F3008F047C0E82FF0E0EE5BFB4F6F
:100880000C940A105F046304510457045B0483044E
:100890008304830466046C04700474047A0483047F
:1008A0007E04809180008F778093800008958091EE
:1008B00080008F7DF9CF80918000877FF5CF84B550
:1008C0008F7784BD089584B58F7DFBCF8091900094
:1008D0008F77809390000895809190008F7DF9CF5D
:1008E00080919000877FF5CF8091C0008F778093B3
:1008F000C00008958091C0008F7DF9CF8091C20023
:10090000877F8093C20008951F93CF93DF93282F92
:1009100030E0F901E757FE4F8491F901EB50FF4FAA
:10092000D491F901EA52FF4FC491CC23A9F0162FBC
:1009300081110E943804EC2FF0E0EE0FFF1FE85306
:10094000FF4FA591B4918FB7F894EC91111108C0A5
:10095000D095DE23DC938FBFDF91CF911F91089557
:10096000DE2BF8CFCF93DF9390E0FC01EB50FF4FED
:1009700024918A529F4FFC0184918823D1F090E00A
:10098000880F991FFC01E654FF4FA591B491FC011B
:10099000E853FF4FC591D491623071F49FB7F8943A
:1009A0003C91822F809583238C93E8812E2B288382
:1009B0009FBFDF91CF9108958FB7F894EC912E2BC4
:1009C0002C938FBFF6CFCF92DF92EF92FF920F93CF
:1009D0001F93CF93DF938C01DC01CD91DC91688173
:1009E00070E090E080E00E94E60E26E53EE049ECF3
:1009F00050E40E949D0F6B017C01698170E090E0E2
:100A000080E00E94E60E2AE037ED43EA5CE30E94B4
:100A10009D0F9B01AC01C701B6010E943E0EAB01C8
:100A2000BC01F801848195810E94FF00D8011296D3
:100A3000ED90FC9013971496ED91FC91608971896B
:100A4000828993890E94B00EF7018381262F062E9A
:100A5000000C330B67FD21C04FEF50E0421B530BDE
:100A600090E0481759070CF4CA01D70113968C93EC
:100A7000D7011396CC911397C60F1396CC93139767
:100A80001296DC9161E08D2F0E94B204C11110C05A
:100A900060E08D2F0E94840430C03195219531098A
:100AA00090E0821793070CF4C901F7018383E0CF2C
:100AB000CF3F11F461E0EDCFED2FF0E0E757FE4FAF
:100AC000E491E150EF3008F08EC0F0E0E659FA4FC3
:100AD0000C940A1079058A058F059A05A505F3057A
:100AE000F305F305B005BB05C605D105DE05F30525
:100AF000E60584B5806884BDC7BDD801ED91FC9141
:100B00001082DF91CF911F910F91FF90EF90DF90B6
:100B1000CF90089584B5806284BDC8BDEECF80912A
:100B20008000806880938000D0E0D0938900C093DB
:100B30008800E3CF80918000806280938000D0E0C5
:100B4000D0938B00C0938A00D8CF809180008860BA
:100B500080938000D0E0D0938D00C0938C00CDCFE7
:100B600080919000806880939000D0E0D0939900AD
:100B7000C0939800C2CF80919000806280939000D3
:100B8000D0E0D0939B00C0939A00B7CF80919000A3
:100B9000886080939000D0E0D0939D00C0939C002B
:100BA000ACCF8091C00080688093C0008091C0006D
:100BB0008F7B8093C000C093CF009FCF8091C000F7
:100BC00080628093C000C093D00097CF8091C20014
:100BD00088608093C2008091C2008B7F8093C200A6
:100BE000C093D2008ACFC7FD65CF52CFFF920F933B
:100BF0001F93CF93DF93EC01F62E8A01188281E0D8
:100C0000898362E08F2D0E94B20481E092E0F912A4
:100C100080E0E82FF0E0EE0FFF1FE45FFE4F11834E
:100C20000083813079F0809169008C7F81608093AE
:100C30006900E89A88E28983DF91CF911F910F9133
:100C4000FF90089580916900837F8460809369009C
:100C5000E99AF0CF08950F931F93CF93DF93EC01A0
:100C6000288130E0F901E757FE4F8491F901EB50FC
:100C7000FF4F0491F901EA52FF4F1491112379F0CB
:100C800081110E943804E12FF0E0EE0FFF1FE455C0
:100C9000FF4FA591B491EC910E2381E009F480E01F
:100CA0009981989F802D1124DF91CF911F910F91F1
:100CB0000895E091BB01F091BC0180818F5F80833A
:100CC0000895E091BD01F091BE0180818F5F808326
:100CD0000895BF92CF92DF92EF92FF920F931F93EE
:100CE000CF93DF938C016A017B01DC011296CD91D9
:100CF000DC91B88020E030E0A901CB01B6010E9470
:100D0000980F87FD27C060E08B2D0E94840461E06E
:100D100089810E94840420E030E0A901C701B60166
:100D20000E94980F181624F0F7FAF094F7F8F09450
:100D3000D8011496ED91FC91C082D182E282F382B7
:100D4000DF91CF911F910F91FF90EF90DF90CF90A7
:100D5000BF90089561E08B2D0E94840460E0D8CF9D
:100D6000BF92CF92DF92EF92FF920F931F93CF9398
:100D7000DF93C091A701D091A801EC80FD80CE80C7
:100D8000DF80B12C10E000E0D60112968C91129712
:100D9000B81690F48B2D90E0880F991FED91FC917F
:100DA000E80FF91F808191810E942B06080F111D09
:100DB00087FD1A95B394E8CF0115110591F4F6015A
:100DC000838194819C0197FF04C022273327281B2D
:100DD000390BD60115964C914217130609F00CF405
:100DE0008C01F60114830383B801110F880B990B52
:100DF0000E94E80EAB01BC01C7010E94FF00EC811C
:100E0000FD81288539854A855B856089718982895C
:100E100093890E94CD0DAB01BC01888199810E940C
:100E20006906EC81FD812089318942895389688571
:100E300079858A859B850E94CC0DAB01BC018A8196
:100E40009B810E946906888199810E94E3048A81BE
:100E50009B81DF91CF911F910F91FF90EF90DF90D9
:100E6000CF90BF900C94E3041F920F920FB60F9295
:100E700011242F933F938F939F93AF93BF938091B0
:100E8000410190914201A0914301B0914401309100
:100E9000400123E0230F2D3758F50196A11DB11D08
:100EA000209340018093410190934201A09343011C
:100EB000B09344018091450190914601A091470172
:100EC000B09148010196A11DB11D809345019093F9
:100ED0004601A0934701B0934801BF91AF919F9104
:100EE0008F913F912F910F900FBE0F901F901895EB
:100EF00026E8230F0296A11DB11DD2CF1F920F929B
:100F00000FB60F9211248F939F938091E1009091DF
:100F1000E100937F9093E10083FF0FC01092E900FE
:100F200091E09093EB001092EC0092E39093ED002F
:100F30001092560198E09093F00082FF22C093E057
:100F40009093E9009091F200992319F09AE390931D
:100F5000E80090913F01992341F090913F01915019
:100F600090933F01911101C05D9A90915501992391
:100F700041F090915501915090935501911101C00C
:100F8000289A84FF18C08091E2008E7E8160809351
:100F9000E2008091E1008F7E8093E10080913E012C
:100FA0008E7E806180933E019F918F910F900FBE46
:100FB0000F901F90189580FFF7CF8091E2008E7EF2
:100FC00080618093E2008091E1008E7E8093E10059
:100FD00080913E018E7E8160E5CF1F920F920FB609
:100FE0000F921124CF92DF92EF92FF920F931F93F3
:100FF0002F933F934F935F936F937F938F939F9321
:10100000AF93BF93EF93FF93CF93DF93CDB7DEB74B
:101010006C97DEBFCDBF1092E9008091E80083FF9E
:1010200025C068E0CE0145960E94290382EF809397
:10103000E8008D8987FF39C09091E80090FFFCCFD0
:10104000982F907609F034C19E894F89588D2F8949
:10105000F88C911131C0803861F580913D01809309
:10106000F1001092F1008EEF8093E8006C960FB6BD
:10107000F894DEBF0FBECDBFDF91CF91FF91EF910E
:10108000BF91AF919F918F917F916F915F914F91A0
:101090003F912F911F910F91FF90EF90DF90CF9094
:1010A0000F900FBE0F901F9018959EEF9093E80041
:1010B000C7CF1092F100D5CF913059F48111D3CF21
:1010C0004130510581F680913D018D7F80933D0136
:1010D000CACF933049F48111C6CF4130510519F67A
:1010E00080913D018260F2CF953041F48091E8001B
:1010F00080FFFCCF20682093E300B5CF963009F045
:10110000A9C00B8D1C8D22E01092E90010923B01CA
:1011100010923A01F2122EC0109239011092380149
:101120000E94F8021F8299E09983FA8291E09E83DF
:1011300090EA98879AEF998720913A0130913B0184
:10114000275F3F4F3C832B838D831092E9001092E1
:101150003B0110923A01109339010093380149E0A4
:1011600050E0BE016F5F7F4F80E00E94D2020E947C
:10117000F80279CF10933901009338010E942002C0
:10118000DC0112960D911C910115110509F451C154
:10119000D801ED91FC910480F581E02DBE016B5EDC
:1011A0007F4FC8010995009709F03EC1F8010085FD
:1011B0001185EACFF3E0FF120EC08F89882309F46E
:1011C00040C0823061F440E860E188E791E00E942D
:1011D0009F02811148CF81E28093EB0047CF81309D
:1011E00029F440E86BE08CE691E0F1CF833099F789
:1011F0000E942002DC011296ED90FC908E010F5FA0
:101200001F4F6801E114F10479F0D701ED91FC91D1
:101210000680F781E02DB801C7010995080F111D5F
:10122000F701E084F184EECFD8011C92F601019021
:101230000020E9F73197BF016C197D0940E0C60134
:10124000C6CF66E571E0FB01449150E080E80E9462
:10125000D20209CF973009F4BECF983021F481E053
:101260008093F10000CF993009F0FDCE837009F032
:10127000B2CFEDE1F1E081E031E096E3219122236C
:1012800071F08093E9003093EB00DF0111972C910E
:101290002093EC009093ED008F5F873079F78EE715
:1012A0008093EA001092EA008F8980935601DBCE8A
:1012B0008B8D9C8D1092E90010923B0110923A01A7
:1012C0009093390180933801898D811192C08E8964
:1012D0009D89913A49F4813209F07DCF47E050E091
:1012E00064E071E080E0B3CF913209F074CF8332D3
:1012F00069F48F89988DB0E0A0E08093000190930D
:101300000101A0930201B0930301ADCE803269F4D4
:101310008091E80082FFFCCF67E084E091E00E94CA
:1013200029038BEF8093E8009ECE823209F09BCE9A
:101330008F8980930B01EEEFFFE7859194918B3FAE
:101340009C4D51F1E0E0F8E080910401909105019D
:10135000A0910601B0910701803B9440A105B10521
:10136000F1F480910B0180FD1AC0EE3F8AE0F8078E
:1013700089F587E797E79183808380916000809368
:101380003C0188E19BE00FB6F894A895809360003B
:101390000FBE9093600067CEEEEFFAE0D5CF80816C
:1013A00091818737974709F05ECEA89580916000BC
:1013B00088618093600080913C0180936000EE3FE3
:1013C0002AE0F20789F08091FE0A9091FF0A91834A
:1013D000808349CE808191818737980751F290931D
:1013E000FF0A8093FE0AC5CF1092FF0A1092FE0AF0
:1013F0003ACE0E942002DC0112960D911C9101153B
:10140000110509F4E8CED801ED91FC910190F0812D
:10141000E02DBE016B5E7F4FC8010995811123CE7F
:10142000F80100851185EBCF181619060CF41BCEB8
:10143000D2CEF1E0FF12BECE6AE571E004CF1F927A
:101440000F920FB60F9211242F933F934F935F93F8
:101450006F937F938F939F93AF93BF93EF93FF937C
:10146000E0911401F09115010995FF91EF91BF9161
:10147000AF919F918F917F916F915F914F913F912C
:101480002F910F900FBE0F901F9018951F920F92E3
:101490000FB60F9211242F933F934F935F936F9347
:1014A0007F938F939F93AF93BF93EF93FF93E091BD
:1014B0001201F09113010995FF91EF91BF91AF9146
:1014C0009F918F917F916F915F914F913F912F915C
:1014D0000F900FBE0F901F9018951F920F920FB68E
:1014E0000F9211242F933F934F935F936F937F93AA
:1014F0008F939F93AF93BF93EF93FF93E09110016E
:10150000F09111010995FF91EF91BF91AF919F91DA
:101510008F917F916F915F914F913F912F910F909C
:101520000FBE0F901F9018951F920F920FB60F923B
:1015300011242F933F934F935F936F937F938F93D8
:101540009F93AF93BF93EF93FF93E0910E01F091C0
:101550000F010995FF91EF91BF91AF919F918F91ED
:101560007F916F915F914F913F912F910F900FBE9F
:101570000F901F9018951F920F920FB60F92112483
:101580002F933F934F935F936F937F938F939F938B
:10159000AF93BF93EF93FF93E0910C01F0910D0196
:1015A0000995FF91EF91BF91AF919F918F917F919D
:1015B0006F915F914F913F912F910F900FBE0F90C0
:1015C0001F9018951F920F920FB60F9211242F9310
:1015D0003F934F935F936F937F938F939F93AF93BB
:1015E000BF93EF93FF93E0913601F0913701099596
:1015F000FF91EF91BF91AF919F918F917F916F91EB
:101600005F914F913F912F910F900FBE0F901F90C0
:1016100018952F923F924F925F926F927F928F9286
:101620009F92AF92BF92CF92DF92EF92FF920F9371
:101630001F93CF93DF9310925A011092590188EEB5
:1016400093E0A0E0B0E080935B0190935C01A093F5
:101650005D01B0935E0187E291E090935801809321
:1016600057018FEF9FEF909364018093630182E0B5
:1016700090E00E9410105C0141E656E063E00E9499
:10168000F605B092BE01A092BD0182E090E00E94FA
:1016900010101C0149E556E062E00E94F605309208
:1016A000BC012092BB0184E090E00E9410104C012C
:1016B000FC0113828CE0808384E0818385E0828357
:1016C0009092BA018092B90184E090E00E941010DB
:1016D0007C01FC0113828AE0808388E081838DE0B5
:1016E0008283F092B801E092B70184E290E00E9418
:1016F00010108C01FC011082118212821382108A58
:10170000118A128A138A148A158A168A178A108EE9
:10171000118E128E138E148E158E168E178E10A2A9
:1017200011A212A213A2412C512C612C80E4782E1C
:1017300044825582668277821086118612861386CD
:1017400014861586168617861093B6010093B50188
:1017500084E290E00E941010EC01188219821A8233
:101760001B82188A198A1A8A1B8A1C8A1D8A1E8A59
:101770001F8A188E198E1A8E1B8E1C8E1D8E1E8E21
:101780001F8E18A219A21AA21BA24C825D826E8221
:101790007F82188619861A861B861C861D861E86E1
:1017A0001F869093B4018093B30186E090E00E947D
:1017B00010106C01FC0193828282B182A082158399
:1017C00004839093B2018093B10186E090E00E947F
:1017D00010108C01FC01F382E28231822082D583D9
:1017E000C4839093B0018093AF0188E090E00E94A1
:1017F0001010EC0182E090E00E9410107C01FC01CE
:101800001082118262E082E10E94B20482E1F7015B
:10181000808387EE8183F982E88282E090E00E94F3
:1018200010107C01FC011082118262E083E10E94B1
:10183000B20483E1F701808386EF8183FB82EA8231
:1018400082E090E00E9410107C01FC011082118265
:1018500062E084E10E94B20484E1F70180838AE0BF
:101860008183FD82EC8282E090E00E9410107C0176
:10187000FC011082118262E085E10E94B20485E1E0
:10188000F701808389E18183FF82EE82D093AE01EC
:10189000C093AD0186E090E00E9410107C01FC0135
:1018A000148213821582D183C08384E082835E0117
:1018B000E8E0AE0EB11C888199810E942B06288138
:1018C000398118160CF07EC0C9010E942B06082E23
:1018D000000C990BF70125812817190634F488812B
:1018E00099810E942B06F70185832296CA15DB0594
:1018F00011F7F092AC01E092AB0184E290E00E941B
:101900001010EC01188219821A821B82188A198A17
:101910001A8A1B8A1C8A1D8A1E8A1F8A188E198E93
:101920001A8E1B8E1C8E1D8E1E8E1F8E18A219A243
:101930001AA21BA28AE999E9A9E9BEE38C839D83D7
:10194000AE83BF838DEC9CECACE4BDE388879987C4
:10195000AA87BB878AE097EDA3E2BCE38C879D87CB
:10196000AE87BF87D093AA01C093A9018CE090E015
:101970000E941010FC01D182C08213830283D583A0
:10198000C483F782E68280E090E0A0E8B0E480873C
:101990009187A287B387F093A801E093A701DF9115
:1019A000CF911F910F91FF90EF90DF90CF90BF905C
:1019B000AF909F908F907F906F905F904F903F90EF
:1019C0002F900895C9010E942B06992781950CF448
:1019D000909580CF789484B5826084BD84B5816011
:1019E00084BD85B5826085BD85B5816085BD8091EA
:1019F0006E00816080936E00109281008091810062
:101A00008260809381008091810081608093810059
:101A1000809180008160809380008091910082603D
:101A200080939100809191008160809391008091DA
:101A300090008160809390008091C10084608093C9
:101A4000C1008091C10082608093C1008091C1007B
:101A500081608093C1008091C30081608093C30046
:101A60008091C00082608093C0008091C20081603C
:101A70008093C20080917A00846080937A00809184
:101A80007A00826080937A0080917A0081608093EE
:101A90007A0080917A00806880937A0010925601D3
:101AA00010923D0110923E018091D7008160809399
:101AB000D70080EA8093D80089B5806189BD89B557
:101AC000826089BD09B400FEFDCF0E945902809159
:101AD000D8008F7C80618093D8008091E000807F67
:101AE0008093E0008091E1008E7E8093E1008DE0A4
:101AF0008093E200559A209AE091B501F091B601E9
:101B000040E050E06FE773EC448F558F668F778F1E
:101B100080E090E0AFE7B3E480A391A3A2A3B3A3D6
:101B2000E091B301F091B401448F558F668F778FA8
:101B300080A391A3A2A3B3A3E091A901F091AA016C
:101B4000448F558F668F778F80A391A3A2A3B3A3F1
:101B500080E1809381001092800080E29EE4909367
:101B600087008093860082E18093810080EB96E07D
:101B7000909337018093360181E080936F008FEF5F
:101B80009FEF9093640180936301C0E0D0E02097C1
:101B9000F1F30E940000FBCF5058BB27AA270E94F8
:101BA000E40D0C945E0F0E94500F38F00E94570F06
:101BB00020F039F49F3F19F426F40C944D0F0EF4E5
:101BC000E095E7FB0C94470FE92F0E946F0F58F345
:101BD000BA17620773078407950720F079F4A6F512
:101BE0000C94910F0EF4E0950B2EBA2FA02D0B0143
:101BF000B90190010C01CA01A0011124FF27591B52
:101C000099F0593F50F4503E68F11A16F040A22F57
:101C1000232F342F4427585FF3CF469537952795C8
:101C2000A795F0405395C9F77EF41F16BA0B620BC7
:101C3000730B840BBAF09150A1F0FF0FBB1F661F0E
:101C4000771F881FC2F70EC0BA0F621F731F841F51
:101C500048F4879577956795B795F7959E3F08F077
:101C6000B0CF9395880F08F09927EE0F9795879539
:101C700008950E94230F08F481E008950E94520EF7
:101C80000C945E0F0E94570F58F00E94500F40F0C6
:101C900029F45F3F29F00C94470F51110C94920FD7
:101CA0000C944D0F0E946F0F68F39923B1F35523E5
:101CB00091F3951B550BBB27AA276217730784075F
:101CC00038F09F5F5F4F220F331F441FAA1FA9F3F5
:101CD00035D00E2E3AF0E0E832D091505040E695E3
:101CE000001CCAF72BD0FE2F29D0660F771F881F44
:101CF000BB1F261737074807AB07B0E809F0BB0B37
:101D0000802DBF01FF2793585F4F3AF09E3F51054A
:101D100078F00C94470F0C94920F5F3FE4F3983ED9
:101D2000D4F3869577956795B795F7959F5FC9F733
:101D3000880F911D9695879597F90895E1E0660FB4
:101D4000771F881FBB1F621773078407BA0720F02D
:101D5000621B730B840BBA0BEE1F88F7E095089596
:101D60000E94B70E6894B1110C94920F08950E94CE
:101D7000770F88F09F5798F0B92F9927B751B0F097
:101D8000E1F0660F771F881F991F1AF0BA95C9F7FF
:101D900014C0B13091F00E94910FB1E008950C94FD
:101DA000910F672F782F8827B85F39F0B93FCCF3B0
:101DB000869577956795B395D9F73EF4909580957C
:101DC000709561957F4F8F4F9F4F0895E89409C09C
:101DD00097FB3EF490958095709561957F4F8F4F5E
:101DE0009F4F9923A9F0F92F96E9BB279395F69574
:101DF000879577956795B795F111F8CFFAF4BB0FF2
:101E000011F460FF1BC06F5F7F4F8F4F9F4F16C055
:101E1000882311F096E911C0772321F09EE8872FDF
:101E2000762F05C0662371F096E8862F70E060E09B
:101E30002AF09A95660F771F881FDAF7880F969514
:101E4000879597F90895990F0008550FAA0BE0E8B8
:101E5000FEEF16161706E807F907C0F0121613066C
:101E6000E407F50798F0621B730B840B950B39F4AC
:101E70000A2661F0232B242B252B21F408950A2612
:101E800009F4A140A6958FEF811D811D089597F952
:101E90009F6780E870E060E008959FEF80EC089510
:101EA00000240A9416161706180609060895002439
:101EB0000A9412161306140605060895092E0394B3
:101EC000000C11F4882352F0BB0F40F4BF2B11F427
:101ED00060FF04C06F5F7F4F8F4F9F4F089557FD86
:101EE0009058440F551F59F05F3F71F04795880F88
:101EF00097FB991F61F09F3F79F08795089512161F
:101F000013061406551FF2CF4695F1DF08C01616CA
:101F100017061806991FF1CF86957105610508947B
:101F20000895E894BB2766277727CB0197F9089592
:101F30000E94230F08F48FEF08950E94B00F0C94B5
:101F40005E0F0E94500F38F00E94570F20F095232B
:101F500011F00C94470F0C944D0F11240C94920F18
:101F60000E946F0F70F3959FC1F3950F50E0551FBE
:101F7000629FF001729FBB27F00DB11D639FAA27DE
:101F8000F00DB11DAA1F649F6627B00DA11D661F2D
:101F9000829F2227B00DA11D621F739FB00DA11D4E
:101FA000621F839FA00D611D221F749F3327A00D08
:101FB000611D231F849F600D211D822F762F6A2FA4
:101FC00011249F5750409AF0F1F088234AF0EE0F09
:101FD000FF1FBB1F661F771F881F91505040A9F736
:101FE0009E3F510580F00C94470F0C94920F5F3F79
:101FF000E4F3983ED4F3869577956795B795F79572
:10200000E7959F5FC1F7FE2B880F911D96958795E9
:1020100097F90895EE0FFF1F0590F491E02D0994B4
:102020000F931F93CF93DF938230910510F482E0DA
:1020300090E0E091C101F091C20130E020E0B0E019
:10204000A0E0309799F42115310509F44AC0281B06
:10205000390B24303105D8F58A819B8161157105D2
:1020600089F1FB0193838283FE0111C0408151817C
:102070000281138148175907E0F04817590799F46E
:10208000109761F012960C93129713961C93329648
:10209000CF01DF91CF911F910F9108950093C1015E
:1020A0001093C201F4CF2115310551F042175307A7
:1020B00038F0A901DB019A01BD01DF01F801C1CFB0
:1020C000EF01F9CF9093C2018093C101CDCFFE0102
:1020D000E20FF31F819391932250310939832883B2
:1020E000D7CF2091BF013091C001232B41F4209123
:1020F0001801309119013093C0012093BF01209144
:102100001601309117012115310541F42DB73EB765
:1021100040911A0150911B01241B350BE091BF0126
:10212000F091C001E217F307A0F42E1B3F0B281714
:10213000390778F0AC014E5F5F4F2417350748F040
:102140004E0F5F1F5093C0014093BF018193919345
:102150009FCFF0E0E0E09CCFCF93DF930097E9F0D2
:10216000FC01329713821282A091C101B091C20189
:10217000ED0130E020E01097A1F420813181820F41
:10218000931F2091BF013091C0012817390709F032
:1021900061C0F093C001E093BF01DF91CF9108953A
:1021A000EA01CE17DF07E8F54A815B819E01411500
:1021B0005105B1F7E901FB83EA8349915991C40FB5
:1021C000D51FEC17FD0761F4808191810296840F81
:1021D000951FE90199838883828193819B838A83F8
:1021E000F0E0E0E012968D919C9113970097B9F57D
:1021F0002D913C911197CD010296820F931F209152
:10220000BF013091C0012817390739F6309751F5D1
:102210001092C2011092C101B093C001A093BF01FE
:10222000BCCFD383C28340815181840F951FC817CF
:10223000D90761F44E5F5F4F88819981480F591F1C
:10224000518340838A819B81938382832115310549
:1022500009F0B0CFF093C201E093C1019ECFFD0120
:0E226000DC01C0CF13821282D7CFF894FFCFDB
:10226E00FFFFFFFF00E10000000000002A062A0623
:10227E002A062A062A060000C301800000C18081BA
:10228E0000000000000000B7033603D803CD031E84
:06229E0004DC03FA03005A
:00000001FF
